:020000040000FA
:202000005F4F40605D24565438303939344B0D060D0502030E0D0307080803060B03070A67
:2020200009030E0202050C010404010E0F0F0302050D0902030C09060C0303080A040E04C1
:2020400008080D080500030209000B0902060C0100030C06040D090C090A0302020B0F0BA5
:202060000500020A0B0F0B0F00020C0903040D03040B020F0908000800000702060B06088C
:202080000D02000D0008030006030A04000802050100040B0309000A04070F01030F0A0096
:2020A000030A09020105030600050F000E010D05030B00090004090A0D0F02080F03070750
:2020C000080402060B02010A0B0A00030B0F000D0D0B090A07080A060A0C0C010701010A15
:2020E000090C0D09020C0E030504030808070704080B020A0703050C0206020303060A0608
:20210000724A24EB55589DE1540696E5010690EFF405C3E20D0C86E64B1F9CE40B088BEAD9
:202120000509A1EB0D0192EA0604C3EF00058EEE06038CEE0E0CAFE1380C9DE7000083ECDA
:20214000300C87EA030BA0E83F069BE90C0481E830098BEE0E00A3E8061792E2040ECAE75B
:20216000FC099BE521059AEA0903C9E9F01595ED250288E00C0AD6EA0E0851EC01000AC662
:202180000811D3ED2D058BE81529FBF6CB0306ECC10692E70E0091EDF604CEE40A0481EBE0
:2021A000B11B91E9030A8EE80309A6E0A30E08EB983BFDEBC40995EA07049CE4270CDCED92
:2021C000030B5AE51407020F9C0B97E0350395E20103C3E6801E94E53E0788EA0A08AAEE94
:2021E0000D0392E10001CCE10D0488EB550EA3E47007C4EB0503A8EA660892E505099DE808
:202200008C06A6EAA30CBFE0F2F3F30E530494EF3D0299ED0E0E83E9461294E8360F8EEEAC
:20222000190102EF3F0D9EEC32069AEC080DC9E4261891EF360F88EA0909A6E10E0D9DEE89
:202240000508C2E90D0D8DE40708A4ED7306C5ED070AA0EF01099AE2050C94EA810AA3E0AD
:20226000A50FBEE8FCFFF90DF6069EE3380499EA080E84EBE51392E6300F80E2E50090E7D5
:20228000320990EB040CC3ECD21099EC36078EE4040FA5EF090591EB020BCFE3090887ED3E
:2022A0000D08A6E47C04C6E60E03A0EEB30597E30B0A98E58103AEEEAF04B2E6FEF7F20896
:2022C000910A9DE609039AE80A04CAEC98169AEE03098CE4B40BA9EC7A0AC1EF0A09ABE8AE
:2022E000700199EA010E9BE6880EA8EDA70EB7EFF4FCF906660292EB3E0599EE010E83E3C1
:20230000541796E33A078BE80B08ADE8400506E73F3DF7E749069DE83F0F95E80604C0E6A2
:202320003C1399ED3E0584EE0007AAE900099AEA0B0FCDE4080686E5B700A3EB7103CFEA36
:202340000A06ACE712029DEA0C0697E78F0CAFE6A400B9E6FDF5FD060F0C98ED3D0692E5ED
:20236000090887EFF7199AEE360D84EE0A05A6E1200A97E80E0CCAE3090C85E42C0580E56F
:202380000E00AAEF2C0793E0F903C8EF240A86E7020DACEE23089AED0D0BC9E4DD1890EC11
:2023A0000E1092EA0E1996E40B0355EB030B0A940516A0E6070B0CED0E19AAE4092EA3E2CB
:2023C000041706EF020F87E1911A90E922008AE20E0DABE2240397ECF006CCE502088AE451
:2023E000230D8FEF0E00AFE02B0F97E6FA06C1E00B0183EC210586E80C09A0E7280F9FECCD
:20240000F000C3E40F0582EA2C0A8BE96B0C97E90B0F93E92C0FDFE5040E5CE923040E06DD
:2024200054089EEE01019EEB200CD3E1A50E59EF10040A1A0109A2E30B0194E20402C3E25A
:20244000000C86E6020489E20806A9E4040290E8F30BCAEFA70E87ED0D0C8AEC1D030CE3FC
:20246000FC95140B070A39990ED1120354465556503D4D5B404C2C6F07020B0A00D1120F24
:202480002A0519EA060591ED020AC5EF050D8BEA311013E5010482ED020DA8E8060E99EC55
:2024A000F90BCBE2A60089E4060882ED020408EF59081DE3090F97E80406CCE3601511E7C0
:2024C00000028DE00A0DA9EE050697E8FC00C4E006068BEA020A8BEB740111ED230E9DEF82
:2024E0000401CBE88C131CEF200E8EE40001A1E2260C9EE00B0088E42B0C8FE00607A6E8EE
:20250000CD0C08E7BB3AF7EC900E15E7060F94E92903D6EC00025AEF150E0800CB0D1FEFA5
:202520003E0297EC030CCBECCF1C14E330058BE4060CA9EE000596EA0006C8EF03078DE327
:202540005B08AAE17203CCE80D0DA9E8FD0519EB0A0E90E48201A6EBA30AB1E6FEFAF80FD0
:2025600007071DE73B059EE7050B84E8121515E23D0381EF150E0DE910071DEC37049CE842
:202580000500C0E2221B1CE6330E82EA0603ACEC000C93E1090DCDE605028DEF0C03ACE49C
:2025A000720AC4E00809A2EC460B1EE1090790E38805ADE7A107B0E5F6F1FB0D6A0F17EDBF
:2025C000330997EC07018AEC6C1B1BE9330A82E4770419E63C0994EC0909C7EF82111AE4F8
:2025E0003A0281E6030EA3E0070B9EEA0209CAE5020588E6010DA8EB7E0CCEEB080AAFED49
:20260000AE091EE007049CED8F02A3E1AE07B3E0F9FBF80EB30015EC0F009FEF010CCEEE00
:20262000C91C16ED05038BEC0F04A3EE7E0EC4ED0100ADEEDC0112EB0F0392ED820FA4EA2C
:20264000A800B3E7FEFFF905E1001AE038039FEB050C88EAF7141AE83B058AE3E3081AED6E
:202660000D039EEB0D11A2EB122A90EA2008A8E2EB33FBE40C42AFE109090EE0330D96E914
:202680000904DFEB0905CEE00B098DE4FE4D08E80D085AE4F9F7F7360324AEEC071FACE202
:2026A000070FA4E1BB3FFDEF5533FAE00C0F07E57081B9E435FD0206F7402AE03A0D96E06A
:2026C00001059EEAF80FC4EC281093EA001A92E5141CD1EDF922A8E5011309E30E0F8CE14F
:2026E0000D1296E00E0386E30F60A1E70891A7E10782ACE10C72A0E609A0A3E70F44ADEF77
:202700002A0E0CE4ED059EEC220994EA0506C2E3061D04EC070B89EFD31796E22E0184EE1C
:202720000923A1E20B1DA8EA060AA9E6AB32F3E8055DA5E0080003EE040BDBE7BE1B92E9D4
:202740000610D9EF08055AEE03080D030AA9AFEC00070BEB0E5D8FEB0F0A5DEBF5F5F13B84
:202760000800A8E30F0D5CE0010B0A1E05095FE80B020A1E0466A4EF0885ACEF090E07ED80
:202780000E99A5E10475AFEA080A0EE6060650EC050C010309080EE3004E82E5080953E29A
:2027A000D0F4F93E030FAFEA080851E8090801013E0C9DEA2D0F9EED0D07CAEC081282EA2F
:2027C000082FA6EBAB1A0CEF0E0D87E42E1A9EEB280881E3160202ED040D58EA0409070D0B
:2027E0000F0D91E92B0695ED0A0AC3EF061605E70C0F84ECF6149DE6210988E1080E09E117
:20280000B70384EE7D20F6FAED0792EA280C99E10B0EC7EADA1492E7270783EDD40A9CE7B1
:202820002F0C93E50D0D00EBCF189BE3071697E31E0BCDEDFD88BAEA0717AFE5E50194E5C7
:202840000926D0EA00005CE60A0706D515FE24E7DC2390E3092A9EEA0C3AD1E60DC8A2E6BC
:202860001C2E88EFC03595E901298DE6010354E3060E040F082EA6E801279FE80E33D8E4B5
:20288000172B82EFAB3D9EE3062785EE0C0606E49F2494ED002197E30834DEEA09C1AAE643
:2028A000112AC8EB853C96E9002C82E0040BA0E6E2FEF2E5FB5A26EA0BBCABEE7D009EE14F
:2028C000391F95E90F078BEE0F0C8FE4059D94E71B0692ED31019AE5020CCBE614109FE431
:2028E0003F0B8AED0803AAEE0C0691E0010ECDE003018CE19202AFE87D0BC7EE0F0AABECAC
:20290000EC0D91EB020F9DE08A07A7E1A706B6E1F7F7F20ED9059EE70C0A93E60C0DCFE7A8
:20292000CF1A95E6030184E80A0CA6EF7108C8E40803A6E4BB0491E50E0C9CEE820CA4EB68
:20294000A309BCE3F7F8FC00AD0E91ED0F0593E4020CC1E59F1B9AE6060F85E00809A4E977
:20296000720EC4EE070DADEA8E0297EC0D0C9FE2860CAFE7A708B7E8FBF6FC0D710096E076
:20298000010B9BEF0803C5ED681E9AE4000A85EF0C07A9ED7C05CCE7050FA5E25F0997EB00
:2029A00003049DE38A07A8EDAF0CB6EAFEF4FA05360B9BE8020890E10D058EEB36189BE685
:2029C000080F82ED0302A0E17B0AC6E30000A4E3180094E50F0C9BE98008A9E7AC0EB2E39F
:2029E000FCF4FD060B0D9FEE7978DCEC0D0E9FE00E0887EBF01593E9060E83E90200A7E7D3
:202A00007E0CCBE60701ACE0E90090EF050092E1850DAEE1A80CB7E3FBFAF600D40E90E05B
:202A20007182D1EB3D0998E60A0B85E4C41E97E4330785E33BA6AAE43CA0ADE3075EABE7D4
:202A40004E0B0EE8830385E2E21094E10E0B80E31309DEE30A095DE4330E0B1E89058CE6BC
:202A6000070C8BE31606D4E505025EE23403021E880481E5026D88ED004FA8E5020305E0C6
:202A80000906D4EE0F01C6E503098DE6F34108E9300D54E2F1F9F3355E0D95E503059FEA0B
:202AA000090297EE05045AE807030C900A09A3E30C0C0DE00B01A2E9701C99E10509C4E0A8
:202AC0002B0D9FEA00009BEFF302CBE22F1991E7071492E71B1EDDEFFA28AAE6031E0CE6EB
:202AE0000D0685ED01189EEF000C87EB03BDA3E9F199B9E1010D339D07D5130433F70C03B3
:202B000045616820732967616A6D24622A6462636C256A6D646C63287C6E6B726D21656690
:202B2000646177256068762A53410809FA9017000703B89F19DA1D0427131F0B0FDB1001B2
:202B4000090F87E6F35B0AE2090251E9B5F2F9B6090953EC0301011F87008CEE9A2CF6FCED
:202B6000880886E23D141CE5086188E30A4EA0E40A0201E00A09D9EB0C0FC5EC0C048CE34C
:202B8000FD4D09EA340D5BE5F0FBF538980618EB0E0D98EE0D0899EE040B5EEB0504069585
:202BA000030DABE4090805E5030BA4EF7E1F1BE10C09CFE2C8051AE3040B98E8F109C8EF71
:202BC000D61F11EB071E92E1101AD9EAFD29A2EE081D03E3020F8FE4EA1A12EA060386EEBD
:202BE0000B0EADE3C8F5F4EB58422C7367656468700701040D030206030E0906090F0803E8
:202C00000B0507040401030E0F0C0905000F04000E05000A0D0308050E0E0000020E060BD0
:202C20000B010206000B0E0402000F0D0E070F050E000105060D020D070C0A000A0C0302AE
:202C40000B0F02040E0901040D0C09080E03040D0C0702000E080B040B0304030F0D070773
:202C600000000805090F010D020F0400090E0C0808040B060E0A0A0806050E010609080861
:202C80000D0F0B020D070A02050B0D02020A0904020305040009050F0D0D0907060B0F013D
:202CA00006080E080C0E000C010F030C0605070906000D040E050D040907070E030B020A16
:202CC0000D00010F0F070B0A0601050C090E0903090A080D0B09040A0308090F0209000DEC
:202CE000050808090C0E06070D090F040E0500060F0D0E040107050106010A08070D010FD4
:202D00000304090C0E0B02020100050308090E050904040E0E030B01040401080200010AF3
:202D20000D0E0406040B0C0D0D040300090D0B050A0103040907010703010B0C030B030BAB
:202D40000F0B0D0F01010403070A080203030B0E0C0D050C0C02050F040B0A0E0B03010F69
:202D60000F060F0F0E010B0B0B08090D03040B040C0F030605060C0A0F0E010505070C0C30
:202D800009030A00080D07000A0E0E020A05030F0C0A010A09040B05030B04030A01060E46
:202DA0000B060207000F02080B010F0B0A050B0103000D03030A070A050C040D0C010D062C
:202DC0000406090E06050C0E09050B0D000E04050C01070D0705020C0900060C07080E0EEF
:202DE00001000204080E04000C0E0B0A010F0F03030B0204090409020008030C030D010A03
:202E0000050D030A0C0604050E060A0C0A06050F05020B010A01030F0A0C050D05050E00BA
:202E20000C02030800070D0102050D0D0A090C01030B050F0A000C0C0008020A04090202BA
:202E4000040A0C0B000F00070B0D0F07070D070D060F0C030B08040A050E0D030902040169
:202E6000040E0D03060F050208090D03080000070B0B000F06090B070D07020E00030F0A5E
:202E80000F0A0A0006080505040A05030D080507040E0E05050803020F030A0908000C0050
:202EA0000B06090D0F0D080B0D020F090B0608010607090D0D090D0A09000B040B06050EEF
:202EC00005090002090D0302020A0609050B0D0B06010F040109090100090C0A0206050A20
:202EE000010002020003070A0E0E0909070C0D000B0E0B010D060E090E0A0E0D050D0000D7
:202F00000E0F0E0900040D080B090D060B0F0600090D0A0902020C000F060E020E0A0D0E8C
:202F2000010902000A080B0F0C09030C0A0F070503050D0C00050F09070E0D0F040A0F0084
:202F40000907060E0D0206060103080E010A0D020404000B0007010A0E0F06030E0206029B
:202F60000D080B030C0802030609070B0D0A03050A0606070800050F030004080F040C0767
:202F8000030D0D0400030704040B0A070B0D0E0A0E010500030D0809020E040B040B0D0A38
:202FA0000F0100050F02020A0D0C0803040C070908080B0304080B0409030202080C09062F
:202FC0000A07010C0B070C030F0F0708030F020A05080C0C0E0F0606010D0B060E060102E3
:202FE000000A080F090F0E08090D03060F0E030B02020E0C030D0C0B02080E0907070408B8
:2030000017F021E50201080E09020E07060E0706020908050D0907040E0B0D0909010C0BC0
:20302000010E0A0C0B0406040D0E0F0007070A0B020707080D0D0E070F060E09000C0A0973
:203040000F06080807040E0F0B01070B0F010002000A090C0201020F0C090B020D010D0B78
:20306000020C08090B07040D0D090F080C0C020105010B02030C0103050C050F020601036F
:2030800008010308030C02090C09070609030D0302020F090707050302020A0803070E0A5A
:2030A0000E01080A0E07070A0C0A0808060A060F07070202000E070109070F040D040B0B0C
:2030C000020B0F070D09090D0B040D0F0D0C07050F00080802030C0E0C0E0603060F0905CD
:2030E00004050C0403030D070300030304080A030E05050C04090B0F01070204080807010A
:2031000016F42FE70C0A0C06070004000F03050E0D0E010502000F080E0002050D070B04C5
:2031200009020F080F050E0E0E0905010F0509000B09070F0B0F02060A010C08050E080875
:2031400000080C070E0C090408090C08040F030D07050D0E03050F0B030C090F060102026A
:203160000705070E0E030F07010D0F0C06000A0E0008020A0F0408020E0A0B040105080951
:20318000020C04010C03040C0D030F070E080F0109030A0C01010A0A0808000D0000020357
:2031A00007090B000D0C0307090B0D01010A0C0F0401030D0D050F0C080A090E0901010F04
:2031C0000901050306030F0F0C0E010E04010F06010D05020500020502080A0D0B0F09030B
:2031E00000020D070C050E0201000D03010F060C050A0E0105030B04040A020A0708030BF9
:2032000004060D0801000708090A07050D0601070301080F06010A0A0C0C0C0A0E09040FB7
:20322000080408040B0C000C09080E030A08050C0A02020F0202010B0A0D070D0A0F06088F
:203240000F0E010C0B0708040905030B080E0104040305040801060A0C0405040F080F087F
:20326000080F0A0508070D03000907000F070D0F090E0D0E03050C08080D0409030B0E0E2D
:203280000E0D080F0307050F0E0007060301030F0F00020F0C020100080F0E040C05040C34
:2032A00001090C0D080C02030602030007080207040F02040102010A0E0A0F050607050A40
:2032C000040E090E090B02000F0B09000D06020E0C08070000010502010E010C000309021C
:2032E0000F00000303000F00050E040E0C0C040E000A0A01060F00080C0304010B000A06FA
:203300000D000B0806080E0E04050C040C010407080D070C0700060105050C0C0A020F0FB0
:20332000010C03030E000605000A0C02020C0E03050B0201090F0C040A05090906050F0DA7
:203340000000000B00020309010204080903030F080A07030606030604030F0706060004C9
:2033600008040405060D01060C0B0E0F02060001040B09000C08060A0B0F0F00090E0B0258
:2033800017FB2DE20D080D0B0A000505020D0D090B0F030005010F0102000805000C0D004B
:2033A000000A070E090C0609000D080908030004010F00070408000308070407040206054C
:2033C00007090D040C0B050E0E08040C0D0E01090A01040A06070E07080F0C01050E0E0CCB
:2033E0000B05050F0A070F0F02060F0C0C0A0A0B0604070C09020408000E06000F020B09BF
:20340000000F090F0C0005070A0D0C0C0B0F080F060D05030302040A0709010A09030709A8
:203420000A0B000D090603050F02080B0A0F0A00060100080B0E010F04080C070A0A090494
:203440000D0C0C050F060902030205040B01000C05000A05000C07000E030E0101000005AF
:20346000030F090500030F000908030E09030A090606060D0C090D080F01020F020C040657
:203480000B020F06030E020B010A08070F02010E0A05010C0F0306070F0D050904020B0933
:2034A000070A040F05080F050B030F0900060803050B0604000404010C0A0D04000D0A0926
:2034C0000402010409060A040003090601060E01070D090E0E0F09010F0E030E0C030B09F9
:2034E0000C04010F0B0D0707020609020D04090A0A0E0C0C0F0F0A06070802070A080A0BB2
:2035000004030F010202060D0E0D0906040F0F0F0B0D07030F0C0002080C05070D030B00A8
:203520000F0406040B0C0D0D010D0C0A0905020C0B05050D020E040600080C0E05030A0B82
:203540000D0F08070906010D06070C06060E090709070A090909020706070E0000010E0276
:203560000C0F040502070B000902090209070A09050304090E020E060A09030601060B0172
:203580000903040E050C0C0309030F070E020D0F0E0F09050F030D06040E03050706040222
:2035A0000201000D04030E0F060A04090208050D0508030B030E0906070003090403030046
:2035C0000A070E080E030201020904030A0B0C0A0B0B060F0700000805040F04030B060504
:2035E00004090A0B0C0A050C09090B00010509080A0C0807080805040C0C010004070209E1
:20360000134F29EC11069DE1050997EE0D0C8AEC141E9EEC09098EEEB10B0BE30349AAEEA4
:203620000F08A7E3118EBAE3040C0B95020004070908090D0B0B050A020D0B0A07180B0E48
:203640000202FAC40A4C563938753633357306080B0D07010B6802D709030B01040E0B0155
:2036600002030A0A0A020F0A0B0409040D1604090408FCC21C425D313F79393D7C71730478
:20368000060704010C6C07D80B090E0E040E04050006010208010A02090109020F1B06090A
:2036A0000B04FFC5134C5937327E3231757171020E040905056703DB040F0E03030C0C0E25
:2036C000050D100807020E0808070E0E0D160E0F0008F0C3174A57343B4D343A3E3F4001DB
:2036E000050902010A6902DB0E09080B050A0604040A20050D0E040F080D0B0C0019050378
:203700000401FDCD15445531324E3834343D4506040002090E6F03DF02060B060C070B0AA4
:20372000090E2205020A0505010D0C080713050D0E03FEC528415B3A3946343B393D4C0F56
:20374000050F020B006C07DE0E010D0F0B0A000C060120010E0502070F0E060C051001071B
:203760000106F4C629455834344331313A3E430F090D010704600BDE060907050B08080B3F
:2037800004004C0609070B030B0F0E0705170309040EF1CD18415C313E4B3F35323C4104F8
:2037A000010E070804630ED30F000E0B0307020F010F870301080E0309080400091E0A085E
:2037C0000401F4C7134252363B4D353E333B4A0A06000106096A51D50A07040907070B02B0
:2037E0000D0B020D050E090402030403091A050A0408F8CD114E5B363F493A3F36313B4D93
:2038000004000903006100DE010B0B080A0F0D00080F0C05088F020D0A030F050C1F0508ED
:203820000606F9CA1B49503E3442373B3D333B410704040109645ED60E04050003060E0410
:20384000080E0B08078D0C0505010D00071D0809030FFEC0134C503A384F3D353836304BB7
:2038600007020707066352DA0F0205030F0E0B0F040F0A0F058904010A0101070D180D0345
:203880000A06FDC7104556343C4F3D493E3E48000303090A0C635CD7020606070F010E0FA3
:2038A0000C020D07098104020D0D060F08140F0E0B02F8E81C543736763F344D78000E095F
:2038C00005090000076854D0070F05080A0B070B01020D010C8A0E06060C090608120800FF
:2038E0000600FCE11A5A363C723D3347700D0C0F0109020F0D6256D907090A0704020D0E43
:203900000E090C0F0F840C04040001020912000A070AF2ED145932327331314F770D0F0B23
:2039200007070008036950D40B040606010A060402021E0107840E0B0A0D020B011E0D0496
:203940000503F2EC15553439783C3345740500040609020F0E6F5BDE0B0D0D0004040D08E9
:20396000020127080A880F0B0009070A031407090508FCEA165C353A513D3B4F50040305E0
:203980000A000D0F05625CD5060907060D0501050302460D0B8C0701010003030213030619
:2039A0000B01F2EC1C5B383D5331354552070205050D070D056159DC060F0C0A0B080D0EB9
:2039C00006028C0D008702050B07030F021F0D020405F4E11C583D335C3B3B495906010B1C
:2039E0000E09010D05605CD20408050D07090E000E03050A0E8A0B0B0509090D0C130E0AAA
:203A00000807FAED17563D38523F343046550A0A04080005006A58D003050005050F03085B
:203A20000A09070400850905090B030A041109080505F6E116513733573C3A3A4A580E0520
:203A4000090E0E030E6552DC09040C010608070F0D0908000D8305050307030C0B1F0F0B4A
:203A60000B0DFBC6044B44393E51313B3200070D0E020F0A036C50000A080709000D0D0933
:203A800008060203068B02080D00040D061E00070504F9C416434A37335F3F3A030D0E0561
:203AA0000E0F0800066854D80E0C01070106090C0F080F05068D0F0A0C02030C0C12030BE9
:203AC0000D0BF1C51E454237325A333C4C00030608050A0A006856D90D00000B03060F08FC
:203AE0000C0B010900850E0C0A0D0D0A03110C090704F5C51845473C335B363D440B0903AE
:203B0000020C0A02096454D70E050F0504010802000B1209018E060B02020E090E1A0301B0
:203B20000A0FF8C41E4B47363853313E430B0E0A030E0A0D0C615FDE060A0B05020D090C54
:203B40000A014100068D0C00010E040D081802010000F1CD13424E3D3A563E3D4D05010C2F
:203B600000060E02076359D60104000309060F0E0D0D8F050D8501050E05060C0310070FCE
:203B8000050FF0C81C4747393B563E30410C0C06090C040C00685EDF03050D080D0102051C
:203BA0000608020505880F0C030E0004031F04060802F0C111464134385B37373849080BEB
:203BC000080205060F6259D10A0F0D00070704050E0102010984070E0909080F09100307F8
:203BE0000B03F2CD1F41423E3F5F303B394A0806050D00080F6658D10205010D0E0704098F
:203C00000C030E0409020D07060D030207180603080EF63B094C3B3C4535373500090C0C0A
:203C2000030A040902CD01DC00030309040C0D0B03020E010D030402060D0904091500051A
:203C40000304F33116433D3D4E39303E01080C020309000F0FCF0DDB060809070406070842
:203C60000E07040C0C000F02000705080C1B0D090708F4391440363A4633373409030908B0
:203C80000803080303CD01D309040A0C0C000F0A020920020F00040E090E06030D13080B81
:203CA0000008F8331D4C3D3249323D3F0E0102050D02040801C70DD90A0A0C0109090F07DA
:203CC00008070D0A0600070304060D0B0B1B090E0606FC8E064A3E3C473A3B524D030D0F75
:203CE0000A0F01060B6808DA000D040E0C070F060E0C0E07070004060B050203021906038F
:203D00000A01F3831E4B3730483D3454490C04090A000004056004DF01090B0B09060B0F44
:203D20000A0C2D0D02880C0E0A07050A0C1307060805FB8F124D3932453F3E544F04080B66
:203D400004090F06016903D80309020D060F0E050E024E03008C0C090E0407060810090770
:203D6000060AF087124E333E4F303158400E00090B01070F016003DD03070E0002090F07F0
:203D8000000384010F800006030309020B100F070F0EF5861B4F363E4D3B355B48040C07D7
:203DA000080804040C6602DA05010E01070A0602020A0605068E0F030D040B060219050E62
:203DC0000504FD9A085B6434334740343E3504090605070B0D6BD40303040F06030B05013E
:203DE0000B05030C0A8D00020503000B0D1502060604FC9B16506C38364946353D3B0A0D9A
:203E000002060B040A60D50A05030208080803020C08060B05030304070F0F0D001E070D83
:203E20000E0DF59A14536F35314245353B340405070D0A080D610ED50B06020706070901C0
:203E400005020504088E030E0B000F07041D0E070602F4B94B565B593534434A3E3C32495F
:203E60000A0B0B0B0D685109AC0F05090C010400000602050D850C0B0C0F0807091F000264
:203E80000B0AF2BD465B5D563730504431363543050202050F675B06A503040E0409000183
:203EA000040F0A0D06810509010C0E0D0F130B0E0E0CFEB8435B535730365D4D363D384CC1
:203EC0000C050C0F06655904AA030F0C070C08050E050D04038F070F0D02050B001F080BE9
:203EE0000500F7BF825555583632704033353E40060D0C06086058D9A30302060007040905
:203F00000F080507018C0F0B0F0109070F1A00080706FFBD88565D5F3A337D413A303F4F00
:203F20000D0807080B6E5FD8AB08010803030C080A071600008A0E0C05020200061C0703D7
:203F4000020BF2BF84585355363D7C45393E3849000D080E006758D5A10B0B0E0000000473
:203F6000060B260B048D0101030E0A0E061E0C0F0308F5BD4C5A525C3830794636313F77AF
:203F800007000D030A6855DEAA05000C01080602010242000D86030E000A0B040F17070169
:203FA000000BFEBD475B495D3F785446373C3870020C0F0D0C6754D9AA0103020E08060FE2
:203FC0000A0E06010F0A08070F050C0102170D080D0CF309175A51313B4637314A060D0BF2
:203FE000030C03080A6E0AD10D0107020203090F0E04180D0C87060A070206000E1700040E
:20400000010CF60B1651553B3144393F4E0104060B070403036F51DC050C0F0B0805080B52
:204020000E022D0D0E8705090F07010F071105020107F20E1C55543E304D3C354805080CF4
:2040400002090700016D50D40A0E03030D0306080F0C48030B87010300080E0904100D063E
:20406000040BF40D1F575C3D3649333E430D0E0F0F0E0206086951DE070E080F06000009C4
:20408000060F8806028A0F0F07040A0E0A190F0E0802FD06125D5F3B3345353048090A0220
:2040A0000A040D08076454DB040903010A01000E0F030C0D0A0D0A070D070A03080A05038B
:2040C0001A17F80C0B546D666C6E7967030B0D060500050D08000606040003020E0606064A
:2040E0000E09080D08070D0806080B0C0F000D0B0E04080C0402010F04020101090E0B00BE
:204100000B0E05000D030308010C0F0300030B0E0E0D0F07060708030A020B0A0D05070F99
:204120000600080C0A070D0D0E0F0A070A0309020A04020B080D0E030E080A090D0E080166
:204140000A0D0A060C06080D050C0A030202020B0E000B070F07010B01030B010F0706056F
:20416000090B090D0A080008050E0A06050B070004020F02010805030F0504080B0F050E4C
:204180000A0A00070C020B09000203090A030D0A06050502050E080607070900010A050B4B
:2041A0000B01050B0601050A080D0B0D0600020504010B070B0A0602050A0B0F030706091D
:2041C000020C0107030D0C0F0F0E0D0D0B02080F0002010E00060D050E0C080006000907E2
:2041E0000D0F0106020B0609030407050C0D010A00040F0F060B0D070D090F0C02050E0AB2
:204200000D0A02030D050908060003020D070302080F0E07050D05010E00010F06020C0ABB
:20422000090705060C0A070506030E080E02030A0C040A00070E0B0C0100020F060C0D028C
:20424000090209030D0E0E01010F010C0F010403020B0D0F0B0703010E0C0D080B0F090751
:2042600004010100000A070008010E020D08040700060605030F00010803040B0905070398
:20428000070D0B0005070B0503040A0F000A040C070907090F060E0707070E08050E070120
:2042A0000D090C0D000D0B0E0E0E00030C0304030E080700000601010F0D0F0A07010F08FB
:2042C000030F060205090B0A0B000F0408040B050E0705000D0600070209080B080C0B01F5
:2042E0000501090C0D070A07080504050F030C0D030A0A0E07090C0F090A070B0C060106AF
:204300000B0A000D020D0702090C0309070D0D0503030503040903090305030805060C06C5
:2043200004090406000F01000306080C0709070C0D0102070100070C0F0B050D02070C01A9
:2043400002030C030307010300070A0E07010809000C0F09030C0F0A03000909030904048E
:2043600002020C05060D0A0D0206080406030E020B000101040C0C010D0B0C0B050A09045C
:20438000090C0908000F0D0D0A0D05040B0706080004000C010A020403030B0E0003040D3A
:2043A0000D030F0F0A0A040B0406080B09090C010E0F090B0A0B050F0D050C0F080E0C0BBC
:2043C0000504020D090D070604080E050A0A010F0403060F0E0D0D0401090B010D0F0F08CE
:2043E000040D00050A0F0100070B030606030C0B0C0C01000A0202070F080F0604070D0CD4
:204400000C0507000B020A090A0C02080C00030F0002040E0203030A080000040F050109D6
:204420000402010B07040100010A06080807030101020D070607030D0B02010002020B06DB
:2044400000010D0608050E07080C090E0D02070B0B0D0A0504010B0D020303010E0000037C
:20446000030B07010C0C03040D0C0E040006020006030401030009050C0B0D040E07060969
:204480000D0F0C060F0307040A020C080F070C080D0E010C03050108040C070C0F0E060CFC
:2044A00009040A0A05070E000C00080E010D0D040C05010E070405030100050D00080C081E
:2044C0000801090806040F0C050B06000D0A060E020A0C0D000E03010B0E050805060400F0
:2044E0000A0D0B0A0002060C0C070006070B0F02040900000A050B060806040807040B0ED5
:2045000000070B0E010A0A0D04090B0B0607080401030E05030B04050D0F010400000D04BD
:2045200007060C0C0F0E0E0503000002060406080405050509060304080A0A0601070304AF
:204540000D090A0C0C07080305070B0D050D020F0C0C08040F0D0103020D000B0100010E5C
:204560000D0000060E06020B0503040304060E0406040A0406070A00050E05010504020B7E
:2045800005040307050F05060B030004020F030E0B0D050A02090E0A030003090B030A0F35
:2045A0000E0E060C0B00090307070C000D010A000B060607000E020007070B0E040C0F020E
:2045C0000F0B04040B0E0B0504060B0403060C0C03070E06080102090808020308010800FE
:2045E00003090B060E0D03070D0909090F0A090B080508090A050E070E0B040503030407AF
:2046000015482DEE0032AFE70E0CA8EA0D0104EFF5C1EBE211C7A2ED04035FE00F030A3031
:20462000010D02E700C08FE4050DA7E92C00ABEC08075EE0FAF4F0B50309ACE0070559EC22
:204640000704020835CCA7EF00C382E005020DE503CDA0ED0829A5E390C398E70C3083E801
:2046600008138DE107CFAFEB824495EE1AC288E826C982E20AC6ACED1F2486E81A2785EC8D
:2046800005C3AFE619C7AFE82CCE84EF06C3ABE80FCE94EE08CB82E60DC981E60001A8E716
:2046A0005CC59DEE04C69EE084C8A0EFA8CFBBEBFFFEFB0635C09BE201C192EF1EC48AEE01
:2046C0003A4897EB06C988EF0805AFE92CC697ED0FC39AE181CAA6EAA2C5B9E5F0FCFD025D
:2046E00017CB93E30BC596EE12CCC2E1074D99EF07CB8FE9158EB6EA080A359305020A0C2D
:20470000070F09000C00050D03030A03070E070004000708050906010805040C00010F08D0
:204720000A030409000E0D000906090707070A0D080D040D0009060905060D0700010100A1
:2047400000090E060708030A040302020B060104090007000B0B060F02040600020D0302A4
:20476000030E0D020807060B020201000805090F080D0A090A070D0108090708000B0A054E
:2047800005020C0902060B02050C030C0B0E0A090B010E0900000103010F080C0B040D0A2B
:2047A000050A070B0106060E0D0803000C010C090E0F020701040B0B0206060C0C0608010D
:2047C0000F0C0C0A04040C0B08090E0D00030100030E030F0A0906050D01060405060F0ED8
:2047E0000408080A0E0109020F030B090300020204080B0F050803070E03010A070F0704DA
:20480000154F29E30947A4E6E60598EC33089EE9070DCFE7D71299EA3F0480EB062EA4EB76
:2048200001249AE3221EA0E60D20A9EC0A2B9CE0092605E01536ADE85323A1E49A0F00E025
:204840005625F4E6A91294E5000F8AEE090CADE509049FE70D0685EF070FABE60C0098EB51
:204860000F0781E70D0586EB0908ADE5020A9AEC030784E50C0880E30F0CA3E4330099E6C4
:204880000005CEE4320982E00408A0E538049FEC0B0986E0350386EA090EAEEF320493EFDE
:2048A000040385E3370889E1030CABEE330C92E1030388E2390D80E4030AA5E53B019CE716
:2048C000350D98ED890CA2E0A908B5E3FEF0F2002D0E97EB31099BE20B09C5EE101F92E2F3
:2048E000330D85ED0101A5E5330C95E60D0985EB3A0C88EB1786B2E80706EE9E07030B0E8E
:2049000012432EE3B70D0FE31284B7E40801000A0505090703000B0E030D0507050A0201D3
:204920000B0A0B0D0A0208060B0C070E0A0D0800020A060100060805040E0D0D0002060C7F
:204940000C020703050C090C060F0F080E010C060604000A04080F070209060700050E0368
:20496000080F060B05030F090B0E0A0403040408030E0C00090A020309030F040901050D45
:20498000030905070B0A01030B0A0B070608090900020204070D0B0A070D0E070B0C03002B
:2049A0000D08050D0E0F040E0900070005050D0E010909090203050F010A06000B070F0FF6
:2049C0000F0108070D000106050B050F0E00060B01000B0808000309040E0F01030E0B06F5
:2049E000020400080602040A0E09010A0D0B0B0B080B07090E07080C0E06060D0F0D0A05A5
:204A00000D06070E0A05020D0D0D0C0D0C0E0A060D0A01030C0B020C0800060402030C0F81
:204A20000905040C01060B05050A030A0E0205020C0A0606020F0D0B020B03020E0F000A8A
:204A4000020C0202040A000F07020B07050801030A080D0F090605080E03090D0B050C0E60
:204A60000B070709080D0B040A010C0C0B0809030506040E020A0C020B040E020904010D3D
:204A8000040B050302010807060406060B000103070A0B0A0E0C030300010B0A090D08034B
:204AA00004070902000D040B0C0A060B0A070D0C0702050D0A0A070D090E000B040C0005F9
:204AC000010A00070E06070B060C020A0E040C0901050008010B080E040E08010D0F0600EC
:204AE00003030F020D0705080C0A0801090503030A02000F010706000A0F090E0C06030ECF
:204B00000705090B070C030A0A0B09090C0F06040907040301070001070C0B040C0E08089D
:204B20000706050C050C0E020D0C0400040409030802060A01060102010905090209010AB3
:204B40000D0F01080C06020D0D0602030409000100010004000B0F0C0F010B0D050708087A
:204B60000807020E070A090503010E0109000909040A0F060E080C010F0B020C0507060940
:204B800008080A06050A0A0A060F08060E0B0105040E010F07070C07040B090C010803031A
:204BA0000609070B0C02070B0E030B01050F0905050B060B0F060906080F0E0707040A06E9
:204BC0000908040D07010303000C0C0005080A0F050F050C0C0F040C070404040D050205EB
:204BE0000E010109050C050B020D0B0D0009060B01040001060904080F01080E000A0400E5
:204C0000F7402BEA730C0FEC0E74A5E70A0A52E60005071B050BA3E5F68ABCEE890A65EEA5
:204C2000080089EFB01793EC086C8AEC0D08A4E1070D98E5F90D8EEF0E1DA3E20B0885EFDF
:204C40000206A3E2A1099EE7F409C3E40215D6E3F522A4E7881102E1050A8CE90B17AEE0D2
:204C6000A50A89E00B00A9E8050C92E7FC0FC0EF2E0588E30B058DE70E06A8E6A00E99ED44
:204C80000C068CE0A70B8CEA540094E9D4F3FCE69215A2E0070F99E30A0C84EE0445AFE9D0
:204CA0000A55A3EF020B0AE808049DEC901BA4E20F1287EC420689E200088EECF34E0FEB3A
:204CC0000B0987E4F55D0AEB140A51EFFAF6FDBA0F59A4E3010903E40D0097E59711A9E46B
:204CE000081E8CED950C85EE0B0C81E8FA4D0CEB0D028FE6F15C01E8270F53E3F3FFF6B481
:204D00000659A2EA000103E2050D92ED9A13A1E9041E88E00B0282E7040284EEFF4C0BE844
:204D2000010681E5F75A08EF460956ECF7FFF9BF0154ABE00B0709E20A0C97E4981DA2E4D6
:204D4000001B83E60F0C85EC060E8DE6F64603EC070281E3FE5309E5570E52EEFEFAF5B99A
:204D6000045BA6E50B050AED0A0993E19716A2EE051181E340048AE4050088E1FD4804EBB0
:204D8000020C83E0FA590FE4570252E1FBF4F6BF005FA8E8000E09E20F0D96E29F10ACEF66
:204DA000041F81E507068AE50D0B89E8F64102E7070186EAF6540CE25F0A56ECFEFCF8BC3C
:204DC0002F059FE39119A9E50C0882EF2E0302EF0E005DE50D0308060A04A1E48BF4FCE2E0
:204DE0000B00AAE585F2FAE58A351806881D080208070302030007040409030408070008EA
:204E00000D0B00010A03090009050A040F040000020B010408030C0D05010F000909010FC7
:204E20000A020D060D0D0A0A08090308030302040A06080D080C0A01020C040906010C0685
:204E40000C0D0D040C060C0E040E0705040E090B0F0C0D0B0E080206030F0E0A020B02042A
:204E60000D0C070B050A0609040F0D030D0E0F0E03000A0B0C09070606010401060F010C26
:204E80000209040B000207070505030904050D030C000B0D0C0B0E060A0E000E0F030A0127
:204EA0000B0A0609010F020A0804090E05030304060D0D0806060A0C0605040C0F03070DF5
:204EC0000801070002000D030B0D0205040C0C0907050B0B01010006080805070F000E0306
:204EE00008090806080D00090E07070B0E07070A07040F0F0D070E030E030A0804050008A6
:204F00000D020605000E06040F0F0B06010202040009010E08030F04000C0202050C0C0ABA
:204F20000305030E000F0E0E0B0500000D000906070C0F030F0304040705040D0606080C85
:204F40000E04020F000B0E000B020F08080F090D030908030A01020A0709030C0F020E0850
:204F60000702070908050B0A01080F070A0B0808040C0801050F0506020C01010B08040251
:204F80000D0E0E0E0C09030B0D0E0108020B050804000D0F0709040D04070D080E080E0EE6
:204FA0000F03060E0E00090E0008070F0B0F09070D090A040F0F09070809090C0A000E02CC
:204FC0000E010E0A070B0F0A0807050C0D060F00060B0A0D0A070B08070902030E000701C6
:204FE0000F0909080302000B070A080D0908020A0C0D04000F0E0B0401000D0C0106000CBF
:20500000040803070B0B05030E080F00060E05080E04070F090E0D02030900020D0804029F
:2050200008020807080B0E0C0E040F040F01040805030A0E04020D010707000F0408050087
:20504000000C0304050A070D0A00040A03080C05030C0504000E060407040E080B0F000279
:205060000E06060E0A0F040B0D0A020608080C0606020A040D03050E05010B07000905063A
:20508000060F0D010D0901040505070A0E0501080A0205000A0D0E0F040C09000A0B050C17
:2050A0000203030C030F05070E0D0909010B0B060D0D06070601030B0B000D080B030605FF
:2050C000020D040407080B0108080D06070309050A050708060F0E09020006090D030B05E8
:2050E0000D09080C0F040B0C0503070D0705010F03070B020D04080F09020A0D0E0A0005A6
:20510000910FA1ECDC0C9DE305068EE09319ACE3D50D8BE50803A5E89300A5EEDB0396EED4
:205120008705ABE80614A7E2A1081FE4F9FFF4059A0CA7E4EF0497E22F09AFE4060CA3E112
:20514000070981ED931DA8EDE30C8CE91DFA27E605030A04020C050C040109090F0E0F0E7E
:2051600006030D0A080B0A080D0E01050B0B000D000F060C09060B070B0A090F0C0C090C0A
:205180000F0DA0E49E2BA8E3D52C95EE052486E29D39AEE7D02D8BEF052DACEEA12B85E225
:2051A000BE2ACBEFA227CBEE932EA5EBA12F9BE5052C82EFAE2B84E3972DA5E0A62B97E9AE
:2051C0001E20CFE30A2D8FECAE2A8BE4912EAAEAA02890EC0F2C8FE6A52787E00805A8E9CE
:2051E0009E23A1E3D02A92E68024A6ED2936ADE5A80411E7F7F0F3009222A2E5A42E9AE3C8
:205200000E2DA7E02A1EABE9030B1FEF020D071E0B00AEE3070A16E4090B0F020504ADE23C
:20522000902CA4E8A22A9AE8002CC3E9983CA7E1A82089ED9829A7EDEC209DE32D27AEE99A
:205240000224A8E426218CE0EA2888EE15F822E60F04000C000009060B05060B0700040DE5
:205260000F0A03020708010C0F0E0B0B07020D070E030707070E0F0309020D0A0D0D040618
:20528000FC482FE3774AA4E6680808EB9802A4E5DA0198EA8F09A5EC0C16A1E6A30019E616
:2052A000670904010709ABE4A218FEEB048A0DEF020B5CEE0305020D130FA8E6020808E796
:2052C0000409A4E70391AFEE052FACE70015A8E40C04A5E3B327F1E3010390E80C0C77EA62
:2052E000290F0110F857A7EA0C68A7E5500295EABA04DBEDF306C9ED0B0B8EE0431491EC27
:20530000BE02C5E50943A7E1150806E8320497E1BA07DBECF609C2EBF9150EE10C0587E8E5
:205320002E129FE1B101C7EB72F6F9E795F7FEE7060457E20C00080F01075CEE070D06A21C
:20534000030EADEB0A0F00EC050AADE4FC5508E00E095AEE040B07DD0007ACE90E0E03EECB
:205360000908ABE3F06E07E3090D85EC054FA6E42048ABEB0B0C53E8E3F6FDBE050B5EE3AC
:205380000D0D00AD0B09A6EDF782B8E8B80194E7B905D7E5F405C1E10F1887E98919A8E775
:2053A000290E8EE0AF1C93E5BE05C9ECFD5FA1E70167AAE40A49A0E1170505E388079AE4CE
:2053C000B60FD7EDF70CCDEEF216A1E50D1705E0080C8CE87A1F9AE8BF00CEE747FEF5EEB0
:2053E0006DF4F0E2030356E502050F000F0E55E908010DA20A05A4EC0A0F0DE80D02A8E9C3
:20540000F15301E809085FE00D050DD90706A7EC0A060AEF0B04A6E0FB640EEA040486E113
:205420000643A2ED294EABEA060A59E5EBF3FEBA020458EA060500AB0F00A8EDD8FEF2E258
:20544000080697E0B30BDBECF806C4E8051486E3CA14A1E9F629ABE002190FE303008DE780
:20546000ED1B9EE0B302CAE9FB55A0E70B6BA9E20100A4E5B404DFE3F30ECBE00C058BE139
:20548000B60DC0EB0E42AAE8180A0DE5B60D91EFBD01DCECF30ACDE0FD1605EF0A008DE7B0
:2054A000AC179BE4B20EC9EB10F8FAE831F5F3EF0D0C5DE505020808020E5FE6070F06ADB4
:2054C0000F02A9E50B0100EC0906A8E6F25205E70E0758E60C070BDF0E01A1E0000604E49A
:2054E0000C07A1E6F4670AE2050888EF0B47ADE22F47A1E70C0A5FEBE0F8F2B0080D59E937
:2055000003020BA5020CA8EF97F2F9E53D0193E3BE03DFECF906C4EC0B178DE8891CA5EB0F
:20552000290A80E5251B91EDB107C7E0F753A0E1036CA0E3074AAEEF13050CEA0D059AE071
:20554000B504DBEBFF03C2E8F71AA1EE0E110AE0030E8FE0F51F9BE2B20FC0E0EAFDF9EB3A
:205560000BF5F6E60E005CED000208090E0852E4050F0AA4010EA7EA0C0704E10F08A0E0A8
:20558000FB5601E7070B52E00A0209D40E0AA1E70D000BE10B0CA2EFFD6E07E40C058EEA85
:2055A0000E4CA9E22B48ACE0000552E4EEF6FBB90A0A5EE0070000AA030CABE172F5F0E956
:2055C0008F0895EFBE07D0E4FF0CCDE204198EE7C81DA2ECFB27A4EB0D1405E80B078BED2F
:2055E00063119FE9B708CBE4C2F2F7E60571A8EB5D0297E7BD0AD4E20601C7EC43089DE1CA
:20560000BD0BDCE10801ACEF2D07A4E4020DC4E6360B91E3B401D5EF0908C4E6220D90E361
:20562000BF02D7EB010EABED2505A2EE000BCFEC7E2FF7E51F0093E0080791E62E09D2E630
:205640000C0B5BE214050A0209069CEE3B0593E50003CDEBF51A9AEC3B0A87EB090FA3E5D9
:205660000D099BE4050EC2E7070282E6590AA1EA7109C0E90A0EABEFDB0493ED0D0F98E6AC
:205680008707ACEDA90FB2E1FDF9F104C50694EF350297E5020E89ECB51897E33D0787EF26
:2056A0001B0A00EFAC0F99E9300393EB020FC1E4A81E9CEF370D8BE60105A5E20D0A9CEB01
:2056C0000706C8EF020C88EC0E07AFE67D00C7E7040BA5EC720D9DE7000F9AE2820BA3EF62
:2056E000A505B0E3F6F3FF08610F9DEF360D98E4010487E45D1395EE36038FEC5B0698E7CB
:20570000350295EF0B00C1E34C1C9DEC37078DEB0D03AFE503089FEC0007C5EF0F0788E8FD
:205720000A06A0E57902C9EE0B01A7EC240999E6020093E38C0CA3E7A80CBAECFAFEFB0769
:20574000170B99E30A039AE30E04C8E10A1397E901048BE00508A6E37704C4E6040FA8EAF9
:20576000FB0F91E1030A9FEA800BA8E5AA00B6E9F3F6F807D2059DED380C93E4020D87E13B
:20578000DE1995E7380989E10222A8EF001AAEEF010EA0EF7D2AFAE60F03A8EAF4FCF5E9E2
:2057A0000A05AFE3022CA9EBAA0E9BEFBD08DBEDFA19C6EA090DD2E5010C84EC8B1E9FE082
:2057C000BC05CBE30E04ABE0B104D7E4F706C9E70118D1E2F934A0EB0E1C03E3050584E896
:2057E000661A9DECB508CDEC0402A9E3BB0AD3E0F01DCFEC0800D4E3080B80E24B189BEC3A
:20580000B603C1EA0F02A1E9BB04DEE1F508CAEA0516D6EA051F00EA080585E5221290E84E
:20582000B900CCE633FEF3E60001AAEED2FCFCE90B0BA0EE060348EB080BA4EA2F0FA6E161
:205840000740BEE89EFCFD1C0000A8EDCAF2FAEE0405029402D31C0A070F3690090C000ADA
:2058600004080A060E0C09050108000306010A090D040001080B070002050500000E060072
:205880000D0203040B0B030C01050D0B0E020E0A000A0A020B04090601030E070C0A0F0D08
:2058A0000A020F0706050B020D0A040D04060F0A0709070C07070D02060C0F0709020A0CDA
:2058C0000B010A0D090B020909090E070A0F050407050C0A070804060A01070501010C0DD0
:2058E000060A02010109020D070104080208060E0C0F0108060E010207060E0C02020106DD
:205900000D0808040605000D020C0F0507020B0A01020A030105000205040A0D0A090609B4
:2059200006080B040203020A0D080C010F0C0409060F020D000A000C0C040A010B03030C7D
:20594000030D060C0E0F040B080E08070704040D0003010F020D0C050A020C0C070C000945
:2059600004090C070B0E0D080102010E08010B020B0006040F07050A090C0F0C030B0C0A23
:20598000040A040C0F0701010705030A0D0103030409090C0E0B0D0B0A010B010505000F21
:2059A000040B0508020102000E0D0508030E070B0108010607050D040402030708030A0029
:2059C0000F0F0704040C090A09030E05050E0F0204060C0A080001050C03080B090F0803C5
:2059E000010107050C090A0F0A09050E0B0400090A060908030A0A0E0F090309050B0C099E
:205A00008F0D9BEE290295ED0905C2EB7B3C97EF2A0380E4060CA5E1280F97E50903C2EF23
:205A20002B0180E7050CA6E326039AE40D07AEEF2C02AAED2B0A87EC0105AFE91F0299E438
:205A40008309AEE12B23A1ED051FAFE605000DE63D0D97E3860ADAE7080F5DE1090D0A1301
:205A6000290596EB860A81ED0F0DD7E412F22FEA0C068CE1F71A07E2060458E9F6F6FFBD19
:205A8000040AA8E1FAF0FEEE01021E970F3B180D0607090C010D0B0B06070800010205040B
:205AA000060F030A0A0E070F090A0206000E0F03000A00040D0E010502070001070D0C0DF5
:205AC0000E0A060D060E0103010F000A0A0406050D02040F0A04000006010108070E0A04ED
:205AE00006050E0701000B030A0B0208050A0D090D010403080F0D080D0C0D0A020E040EA0
:205B0000030F1C030F001A0B020A0C00000A040B01020F0F09000905010F08010700080C83
:205B200009090A07010D05020D0C0206060D0307030C0007000102050F060A010B0C0B0986
:205B4000000507040E00050E0C0501040405080A06010B050F0F0F040D030902080F0E0259
:205B600007050F0601070A0A00010A0B02030A0C0B0D0C050E090C0401050E01000F06013C
:205B80004304090D000B0C0E673902089205CA08080703020D0D091F1602050405030706E4
:205BA0004563040F05090E0B0E050B0F030D090000170109020801050F06070D010FC80289
:205BC0002A0D000D07050207030204040E03070A0E020D030C040F0E0B57060D00050A0864
:205BE0000A0E00090C00010C010B0C090D000109040E020B060202070F04070102010A0BD0
:205C00000E090007070107000E0102070DFAFC0C0F0B0007060A0601040B000A0C05060CBC
:205C20000200030A04030A0D020206090203010F0F020D090709070501010606080C0A00A0
:205C400001050E0209020203080F0A0E03070D0A05070400040E0E0A03090B000B070D0955
:205C60000C01000F0212040F160F03180F0A12070610090E1B030C1F0F01140A071A0107A2
:205C8000150C08160F080D0B0600030C0B00010607020F010B050F05070600020406090709
:205CA0003975060505040B0D060305061A001E0B23041A06010B0B634D05000B230D18034A
:205CC000434E41461D07150A2B091201040E0B6F440A03062D0F1A0245444848074D0D026B
:205CE00002050E040608078C1205120307050A090BF20C0505FE06020EFF0604420B060517
:205D00000A0B0B0F6B330408990FCA0C01050508080D041814080C130C09010E4564040DCF
:205D200001040C000309020108040300092B0B0504090B0A000F0D08090ECD0224060B008F
:205D400006000F00080B0C0805050F020308000809010D0E05520E0704070E0A0C09040408
:205D60000A060F09010001060F02030A080A0808070D09060D08010D0E0600030E07000D34
:205D80000004020A0C0F0B0707FCF00D060C050003010B0D0F0A090603070D0E0901020139
:205DA0000F050607000D0A0005060B0A060B090D01000B040B0F06000600060E030F020CFA
:205DC0000209020F0C0B0E020708010402040E05090E080F050C01000D0B0509090B010DCB
:205DE0000A1D010E1D0400130703130F0D1F000E13050716050A1302021505071D0B02131A
:205E00000F03090E010106040C0901080F0C0500040708020A010C01050505053F790D0EFB
:205E200004090106060E0001140E1E032E0E100C040F066342060F0E2F0B140942454C484B
:205E4000140414012E01180B050C0764490602032E0B1C094D414F4208440304040B070508
:205E60000A0C0480190015080C0D060A03FD000F0EF90D0408F80007080B020706030309CA
:205E8000000A030F0A080A050B0E050306030F090D040E010B0106060D0D0B020F0C050004
:205EA000010F0C010B0609020308070A040F02010E040E08010F0506080C0C090E0E0C0ED5
:205EC00008040D0A080C090F0D050F0603030101070009020B0F0F0D0D070F0C0803080DAD
:205EE0000D06010B01080B010E090A08060203000305080F0A050E030F07080F0D080D0AA2
:205F000004060B0F05030802070C010F05040D00050D0706030C0F080307040104000302B5
:205F20000B0600060207010B0F090D0D0D0E01020201030D090107050600080908030A0888
:205F4000060201050B0E0A0908060B0A08020309050103060D07040F0903070C0204070B61
:205F6000070F0F0D0B0300040A060B05020E0D030B080E0E0B050E0A0A050107080E000613
:205F80000907090707070201010507070C040A070A040D050B0F09030D0D0306090C0F0608
:205FA00001070B020B0707030C0A080E0403010A060B02050E0F0F0103040D0E09080007F3
:205FC0000008020400010B0008050A00080203000B020707040B070609010F0B010204031E
:205FE0000306090A070001010505010D0F0602010B0F0C01090507080F0D090909030802C4
:20600000020B09040F080702040308040A090A070F0504020002040506050E0906070904AE
:20602000020E08060F0808060A0A0E0F0B0B0B080001000900080E06040B0109080B030B63
:2060400002050A0F05050400050D0A0A0C030E080807020808050805030705010E07080661
:20606000020308000407090E0C0F0A0904010001000D050B09080503080D010203050B0E4E
:20608000050306020A020301070C0A0A08030C03010A0A040B0C0E08060E090D0A0B0F000B
:2060A000000D0305000F07020B0A0601010704030F0606040B090C07070D0D03070E010404
:2060C000010C0700030F05070D01010C08030907040E0905020E0C00000E0D0D03040D05DB
:2060E0000009010E0D0F0D01050001030C0501090F0F090E060E080804080D08020C0D04A1
:206100000D09030C030B0F040B0300090D06060C0308020904010007080D0F030D0B05098E
:20612000010E0F02030F000C0805090100030A0507070A0508050E0502000F010208060F8A
:20614000040D010A0B0B0C07050B0A0906030A0A05060D0F040D04030506000D050B0F0044
:206160000F0C0D040C0405080208070D0B010D080B0D090E07040A0E08040A0307000A0912
:206180000A060F0A050F00060D05070E0D010903080B0A070A0C0E0A010A0B0F0D07070BDE
:2061A000020B000E09070A0308030C0E060C030F0C030404080907040A03020402080A0DF7
:2061C000070009090F030B00000403090301070D0E07090D0A000A0D040B0703030C020DDE
:2061E000000A0703070E03040A0D080D0009040D090D04000A090C090101030101020809CD
:20620000000309010E030C090B070307060F05050A040008040302010A010A080B030501BF
:206220000B0B0D00070302070D0300000B0B030C0D070807070005010B0C0904020C010888
:20624000080D0A0D0808040B0F0B000E0505040801050D05070D0C0D090E0E0A0E020E0122
:20626000060D02040A0805070F0D06010D0900030A00080800040007010D030B0F0607004E
:2062800001070D050D050B04080B0209040801080C060F020908080F01090C070E0C040CFE
:2062A0000E000D07060E010B05040F0E0D0C0F08050707000400070E0607050007050605F1
:2062C00006010B0A010807010502060A09000C0C07060D0B02050F07040D0D0F0003060ED3
:2062E0000003010D0D0B03030F07080D0507090602020D0609030C0800050F02090D0800BE
:20630000020A06090806040603090E0B000B040B0806060A06020E01000F0E0D04040003A1
:206320000F0D00040D0307020F000B0F0B030C06080A08090E0D060806000D090106050067
:206340000F010F0109090B0D0D0405000C010601000F08090D05000B010E0609050A0F064A
:2063600007000C0C06070C0E01050A02090F0B030C0E010F02020507040B0D000D0B050E1E
:206380000A080B04070F050F0A0C080A0109040B040203090B0E04000B0D060B090E0B0DEA
:2063A000020D0E0F08010B0304010A010908070B000406070A010C02070F09010D040D0AF5
:2063C0000C050D0D0F000A0A010F0A0B0304080F020F010F050D000409060408050B0806BC
:2063E00004020E0C0D0B0909020B020F0805090106040807070A060F050107020B0C000BAE
:2064000009040B0C0E0E0B0503030307000E03070E000B0B07050E0903010E03010A090391
:206420000D070C050001080F000B0B07040903090A05050604010805030407090F02060788
:2064400005000E06020C06060B0F060F0A040705020B01080902030D0A04050103050F0E56
:206460000E0B000D0F05000E040808020F0A0405010E01090F06060D09030204090607042F
:20648000090100030A00070705060102010706030008050207060D0F0A0809050807040C41
:2064A0000F000B0201010F0D060F060F0D0B060902000203000002020400040F010D0A0512
:2064C0000200020701080404020303010B0E0B0807000503000C0F000F070102020A080410
:2064E0000B040A090C0E0C0002080F0D04040E08020505040B0B0F0B050108080C0D0A0E89
:2065000003030C0B0D090D03020F010D030B0F0D0D0D0608070800000D0C02030C0F060574
:206520000B0709000901070E05020B0200070309030D0001040F0204050E0406030809009F
:2065400004060F090F0B0D0C0C0A0F040B070E00030A0F040709050F040601090309020C2B
:206560000C0306050E010A0C0104080F0405090F02060A01000E0703030607080007080D40
:206580000E000B060103000407030C0C0D0103000B04060C040404060F060C0A0405000F2B
:2065A000030A0E03020F0F0A0A0103070709060F0F05060B0601070B0C040F01040C000EDD
:2065C00000020C080809020C020407050D0C000009070F070A0007040801000500020A0204
:2065E000090C090E00040C0E010200010F0D0301070F0E030B0F03050C0E0507070F04089C
:20660000000B0C080A090C0003090D01060D080F08040000020F0D070A02060203010B00A4
:206620000C080D010404070E040C010F070F0102080B0E0101010A090900090A01020D0F70
:206640000E0507000A0C0C0F010D030F090804090C08050002080E010509090F0C060A033A
:20666000000C0E0A0A0B090C0705060B07060908050D0C08010D03050A0708080209020423
:206680000B09090E0905080B07030E08000C01040B07050802060F05010E03090C0007070D
:2066A0000601020C0105060A020107070D00060D04040A0B07080B07070404030E060D0FFE
:2066C00008080B0B00060507090E0401030D07040207050A0B0E0C060E050C0502090E08C3
:2066E00008050700010C0A0203060C0F030C000005020A020C0A06090A07060E0D050801C2
:20670000050306070205090E0702020A0C0D040200050F050306090B09070F010E06050D96
:20672000060A0C0F080C0F0B030E060E0B020C0E0301060000080F08090B050A0B0E09073F
:206740000408030E050E040A07070E0602030C0F0D01050F06050A020A09060E0108020F3F
:20676000070008000B040D010206000C00000403000409020F0C00070509010E00030F0A68
:206780000C010502010A0507010502000A070D0F040104010601090A0A04030004040F0B42
:2067A0000B0D07010B04050A050B070009010E0A0702070A0009090E03020C0C0C06040FE6
:2067C0000E0B0300070B07020E0F0808060409020A0A080A0B08070B0B0704010C030F01BF
:2067E00008010B060E030C040909020E030D0803070D0905060A060E080D06020203070AA8
:2068000006020D0C0F0003050E06000B020B04070A0302040F0B0B000E050D0C07050F008A
:20682000090004020F0F01040F0F0A0D090B0D000706030D030200060405090C0F0E0F0658
:206840000B0B0A020F0D0E0F0B0C040A05040A0E0D080C07030207050B0B0301000A010B2E
:20686000000F02080809040309050F0E0106020A0E0E0306070604000B02030D0E0B070F27
:206880000E0A070A08080F0A0B0F04090C0F0E0D020A0B0D0E0C090B060C08090B070708B3
:2068A0000B01050804080E04070F08080903020C0D0F0802030C0402090D04000D090A0CE0
:2068C000040800050F080F03060F0907080607010B0E010600070D0F020B0F070A0E090DAF
:2068E0000C0A0C020D020E0F0D03050307050F07090A00050502060C0F04060705070809A0
:2069000003000902060B0E030B0F02090C0E0A060404000008080B040400070D0A020B069C
:20692000030D06070F0C0A040E0B02050000010D09050505090B0E0B0907070905080A095E
:206940000C0003010100030A000F040F090004070E0C0C0604000505040601080C050D0276
:2069600003010B020B0A0A0E0E0B0F020806030B0C08040F0B0E050A0D090503020C0F0009
:206980000309070400060D08030F0809000A0D07000E0503080408000F00010B0F0B0F0115
:2069A00003040304010B00010F000C0D080E0C0B070F0B080F050F080B010D030C0F0B0FC2
:2069C0000108010B0A0E080C0D03000C070C0C0D05020A0A00050D0D050403000E010D07C5
:2069E00009090A010301020F0809000508000D04070F0F010805070D08070D0D06090F07A1
:206A00000D0D060903060F0E0C030E0A030B09080A0608000E0209060C000C0009040A0378
:206A200007010F02000A0704030906040F07000C0B0E080104020C0D060005050D07020B7E
:206A400007090D0503090E03020D08030F0707080900030B070B0C00010C060E0E00020D45
:206A6000040E010A010904000B0B030A0A0D020307050701090A040A06060F01050E010D3A
:206A80000D0F0E0906080B0D01000506030F0C000C040A070105010806040A000F080F0702
:206AA000070C02080F050B0D0E0C0B0F0B0B06090807080806040D0A07000B0B0003080DBF
:206AC0000801070D0A0E020F0B0F0F06010506000D060F09090F0F050602000602030208C1
:206AE0000607070B06040D070C010C080B070F020B0B010E040503080A0801030E0C0202A8
:206B000002040B0107010306080D0101080B03020B0F04000B030D06000E01050E090C0F9E
:206B20000C0E030C04030F05000E0B03070607080D010204060500090807090C0F08050071
:206B40000709070008050E070A0806050F0A070E0B0E0F040A07030804080408060A01023E
:206B6000020A0303070E060D000F0E0F090E0E030005070D0B0E0F090B0D020E0A0D0902F3
:206B800002080908070502030A03070F03060B060801090C0E0908050F0505010F070C010D
:206BA000000E0201030B0F000A0C0609010C040702080C030300010A010B030A060B020710
:206BC0000B0F0B0302090D00050B02070D0A0A040509050409020F0A0C040D0006030608C8
:206BE000070A0A050E0C060E0F08090D0E0701010D060106000207030C0A0703050D0F029A
:206C00000F06070E0B0E07050305080100050B0E0209000709000D0F05070D00000D050C88
:206C20000D050F0E0801040C020B020706050C040B0508020B04060B010C0E040508080964
:206C400004020E030A0507090F08020702030C0E0E010E0E080100060C090802050C070648
:206C60000E060C0D060C060E0B08070400070B0E0D0C0B070206090A070C040A0B0C0A08F3
:206C800003000103020C07090B08080D03030D0D050A0A0A0001090F05010C050D08010915
:206CA00009000E030801010A04040B0E0B010502020206020709050F000C060A0C0A0B08FD
:206CC0000C070B0907090005050C060F0005010405070C040A09060B0E0F060A0C060E05B6
:206CE0000A060A08080F0803030908070E0C01070A0B0F0B0602020F0003040A050B0D0E8F
:206D0000080C04050D00080302000A0A0A0B080B0B0D010409050A0E0C000E0604000D0983
:206D20000F0B03050D0F03070905070D070E01010A0F050C0505000D06000904060D0F0656
:206D4000060B060D06090B0E080A0502090A01080B02030B0009020D060B090D0D0801053D
:206D6000010D010509080D0301010B010008090D0002060900000F0C0504090700040F0456
:206D8000080C080B0D070904060208040B02030406030B0709050F090A0B0F0401010A0E00
:206DA000050704050F0B0D0905050501080F030B0704000F0203050409020A000704040A03
:206DC00000070E090C06070C0B0503080F0C0809020501020C0C050B0B0201000103070AD4
:206DE000070807030A0B05010F0A080100040B0A06090A040E0B090F070C0B0D0F01060D88
:206E00000B020B0D080304040E040A05050B0B0A03040B02050402000701090A06000D07A0
:206E20000107020C0D0A020A0B020D0E010904010A010C0E0C040F0C090D000A060208085A
:206E400006070B060F0006070E0D0E080E0402030A0104060B05070B0700020C0A050B0347
:206E6000040002090E08010A04030502020A000D0E01040001050C0B050A030F02030C0950
:206E8000030F010B0A060C05080F0F07080B0400090B0A000309010F010C04070B07020306
:206EA0000F070F060A00060705080403030106060D0C0001090C0B00070B050C040A0E0BE8
:206EC0000F07050B0D0209000F0301050C060B0B020D09070E040C0F0F02070B060B0109AA
:206EE0000A070E0A0004090F03000D04000C060F0B000D0F0C0F0F0B04070703080A060A85
:206F00000A09070B000E07000E010708080D050F0E0F050D0E0100070D0F01040F00030870
:206F2000030301060E0B0A0C0506030E08070F05040B020E0107020900080D01020C090374
:206F4000060906060201080B0604060D070E080708080D090D090E04060B020E0201060E39
:206F6000000C070809020000080F070A0D02090D0404080C06020E040108030F090D05042E
:206F8000090D080A0F06000206030A050F0400000003000B0E0C0005060F0B020A070E0B0E
:206FA0000B080105030F0102060703000B0F0F090A0A0E00050D0A070E0309040D050B02DF
:206FC0000A070003030A0B0004090B0B07020D0901020301000E0804050F0C0C040D0609D6
:206FE00009090D070703060F010408080E07000D0D020309090E040D01090306010F080B9C
:207000000D0A0B0C0008040A070808030E01030A050600030E090402090A0205020C0C0691
:207020000D0E09050A000A05090D08090A08080A000101010508030F0E020A0F040A050D58
:2070400002010400020909000C04000F040E0B09030D01060D080C0104050C020F02070365
:20706000000C0206070D080C09080207020E0B090F010A070207050307050900000D080535
:2070800008050D0502080400020B020B0104000C0A0A0103060C0404020C05050C01040B32
:2070A0000F07040C0003030A04030E0D000E0D010B040F080F0E010A08080703030E060ECF
:2070C000010C060604090A0903020A050E0C0A0905090200040D0B040E0603060E030207CF
:2070E0000B0E0409080400010D0A030E000006000C0C0D06010102020C0109060E070208C3
:20710000050B0E0C0D010E0A0C0C0308040F0B06060D0502030701000A05020C000B0F0973
:2071200008010E0E020E0F08020D0F0804020D060100000D030D000F0A040A030F04060D56
:20714000080B0606020801010F060201030003000704070D0F05010C0C0B040C0A04040C61
:207160000C0F0C09010B0A0107080E06010A090C000407090A0B0E0E0E030A0D0B0A0701FB
:20718000060A0D070506000C0C08080D0204030A000D080D020B0A0F030D0E0F0B000A07E7
:2071A0000D0E05060E0D0D0F090604000A090D060E0A0B03000A060706030D0409060208C9
:2071C00006090B0D0709040E0B040D0E090C0C0D0B020F0B03010F010B0B010602050C0C97
:2071E00006000D0A0A0C030A0F0C0E0405080805070D010702050300000505070205070CB7
:2072000006050202000A020D0102000E06050F040F00000B020F0E030C0A0D06090D050A8D
:20722000050B0304050A0A050B0A0A0D0805010B0C0A07060F09070B0108040F0D0F02034A
:207240000F0C0409000109010A0F0F0B030C010E0A090D0809020407040201050E09070939
:207260000B0E02050C080206080C0E0C010806010C0C0E0708050C05060A0F070801020C0C
:207280000C08000704060F01060B060B0B030E0C0800090609030B0A0E090D01030B0A09F1
:2072A00001030B0B0908020B0D04010D0306090607060B0C04060103060F0D09030F060DDD
:2072C00009090D01090C04070108030F0F04030B0E0F090C0B080C0A07030C07090E0D078F
:2072E000090E000E01040E02020E05040503060208070109010202020F0F06040D0D0607BC
:2073000006030A0D06090D080C0C08030D06060B060F0D0D0E010201020205020900070383
:207320000A0B0902050604070706070B020802030E020E0B0D0E030600010D080B070A0B5F
:20734000050A040F0D0C04010D070F07030D0F0009080B070C0109030A0007080408060F2E
:207360000C0E0B02060C0B040E020102010401070E05030E020C00000E0A030A0B0609062E
:207380000F03060B0B0F07020A0505000205000403090800040A090701060308090B060B1F
:2073A000020D0004020D00050A0C06010A07060A01020D0B0E020B0E0F0B0B0D0D040D04D0
:2073C00002070F0D010D06070C0A0B0A0D020C090A0B0F0009000D0F080E02050F000503A1
:2073E00008070D0C04020E08090206050A0109070601060F0D00050E0C0B0A0A080A050694
:207400000D0A0D010C04050D0B0C030D000304060C0B050B0E0A0A06000909010D0B090569
:207420000D0D030709090D010F0904070A040707050A00010209080F0D08070F0904090D49
:207440000301090E060B00070E0108040D0901000D020F0C0C09050C0A0F0C0C05090E0E1C
:207460000C0E06030301080C0103060D06090D060E050B08000D0B080D05070F020007051C
:207480000C0B060D05000A0D0707050A050E00010B0C030D060A0D030E0700050B020903FB
:2074A000050300060B0F0604050D090F080E070900090606050306080602000208030F05F6
:2074C0000D00030D00090201080F060C0D0B040F05000D050B0D0A080305020A0001080FC2
:2074E0000D050B020B0707000B050C05010700090600080602040B030904070C0C060904BB
:20750000010D08010609060701030C0A030D010B0B08090D0506030C0F04090901090C0A7A
:207520000A080E040E07090E0D0C0B03090A080802000B0F070D0C05080909000F040A0F2A
:20754000090B050304070F0102010205010E080401000C0D0207070E0C0203050705000372
:20756000050C000A0004000D0B0B0B090A00060804090C06080A0F02000A0B05080A030824
:2075800009090C0D020E0A0C06040F0C0D090E0D080806060300010F00060A04020D0D0CD9
:2075A0000405070F000D0F050805000E0D0B0408070B05090D0E0B08020C000008030E02D5
:2075C0000D0E0A060106020F0E050F040B03090F0C0C060B050807050209020C0C0F0C0595
:2075E0000009040A0709040F050C0A010806090904020F03080104020A08000D0D0B0C08A3
:207600000703030B070C060B0D050E060C0A0E070C0309020906090D00090D0A080A0E015D
:207620000E0406050C0D0A020A040C0F000C0C0903080D0A0D0B0E000D0F08060F030F0F1C
:20764000080E090A02090F0A080001070C080408030F000F0A0D000C00090001050C0D0F32
:20766000020B0E03020D030A00030C030A0C0705030E0B02030C070D0D0903020D0C070D13
:207680000E0D0E01080A0A0B04030C0D0507080701060B080B08090A070E0A0C00020504E8
:2076A0000F0E090704080702030C090402020B050A010C0B010E0F0B0202080A0B09020FD2
:2076C0000203010A060200000707030E0B0C050505030800040A0F0A0E050B06060E0301DF
:2076E000070A0009030905010504010B0C0D030F0B0E060A030902060E090C0D0000060C9F
:2077000000050C02010D0009060D0809040E08030E0805060A06070F030002020F09030C89
:2077200009030F070A0F0F050B0A07010D0607010E0607010404030D05040E0D0F090D0045
:2077400000010107080B0300000D0102090B01030103000009080A0B0E06080A0B050C0571
:207760000B0F0A0103060B010B06030C04040E050F0C0D000B0105050D070408000D0D0517
:207780000F020C0806080D000D020D0B0C0609020B08070E07000202060708050B0E020CF1
:2077A0000A06070B0F01070E0B050C01090C0C0A040107030502050F0706020C050E0702D9
:2077C000060D0C0106050C0B05040606070F050400000C09070F0B07010B060C01070E0BB7
:2077E000070900020D03070700090D05020F04090104070006020F06010A0C0704080D0AB6
:2078000006040B010106040A0D04060B06090E0806010C040A0503000B0200070F02040A9A
:20782000010301080D03000D0B0A010F000B0A00010806050C0B0B0B0E0D0305090E08065B
:207840000B0E08020001080E020E0E0B0E0A090D07050F0D0D060B0B02080F0C02050D0A03
:207860000B0A0E0C050E010C070C0A03050E0E0509040E070B030D0C0D0E0E0406070E0BD7
:2078800006080C06030401080A0D050C0F09050C0F0B060B020B010D0A0A070704000D02EC
:2078A00008040500090D0D0F030609090C0A020600090B06050D0804090A0D070A0B0D0AC1
:2078C000000A08050B0E07010A060504000A0206010B090A0508010C0903060A0B00030AD8
:2078E0000A0904070B0604060F0D070009040A07090A010E0E0F050C0309060201080C0D88
:207900000D0E090506070C090B090E0F090A0D040F07070C060E0A0A07000400050D090B45
:207920000E0C0409040909090C0A0B030103020A0F0A090F030D08090A0201040A0D040D42
:207940000B060C000C080908090C060A05060102000B0102000D0304000F000106090B085E
:20796000050D0E0B0B06080509050106050800060B0A0D0A020D0F0B030F02020D060F0306
:20798000040F070E020B0E0109090F0B03080E000802020101090104020B020C030500031C
:2079A00003090B01040F060407080D0A0B0D06010F0306000A080B00010001040C02030AF7
:2079C000090E0E00030B02050F0A0309070E020D04090A08060A0D0609090A09070B0406A1
:2079E0000B00000407050E0A0D000F050702050406070C01040F070909080A0109000E0EA3
:207A000002010A0100040B060D050E080F040E0001060F060003050B0D060E0E0303000591
:207A2000010E0204030F080A070C0A0700040C0C0A070107040C00050D0C06050804090E58
:207A40000A0403030B0C0405030203000B0506080A050800060F05000D05030B05040D0C59
:207A6000080C0108090D0C0F080B0C0F0A07040200060E070E0B0C0C01040B0B09030D0AE9
:207A800008030D0407030601010D0208020F0806060A0D0204060E0A020F07030603040D0C
:207AA0000207060501050F06010A010F0700000F0F0A0C030E010E0C030704000A090209E9
:207AC0000B0C000B020409050808020306050F0609000B000F0D0B040F0C04050C0B0D08AC
:207AE0000105040A040C010D010609020F0A0A0801040200060B070F0C03040B01010F02B8
:207B0000060D070C070B0207040D0F090D0E0A000A04070B01090D0408020C09020B0A0461
:207B200006070208020E0D040D0E030600000A0A0A080E020B020B040A0A040F0D0D0E093F
:207B4000080C0E0A0809050D0D070F0B0D03010C0A0C04010D0B04000C0A050F070E070905
:207B600008090707090A09030B0D0B050B0D040305030C080E0807060300020E0B08020811
:207B8000030D0E0D0F030C020300040B04090307040B0D0D05030106080C0402020E080DFA
:207BA0000B060E09090A0D06040B040807080A050508040D0B0C050C0F050A0707060705BA
:207BC00008080F04020A04080B0105080904040A0D0B00040B0A040305060405040F050AC8
:207BE0000B0A050607040E0F070F060D0F0F00070C0A0C070E08040C04000E0A0D0D060361
:207C0000020F0200000B0B07000E0D0E0A0503010A06010402060B0802070D0703010B009C
:207C20000C0B0C0B07020D02050105020C0F0F0E0A040A0C0C030307060D080206000D0349
:207C4000050D0A000A080D0E0B0D09080F0E0D07080A03020306020A0B020D0E0B07070C08
:207C60000B0D0F01080F08010D0603050406050B050600050E060D0D0B0C0E090B08060AF8
:207C80000A000B080205000F0F020D0F03030E040F09030B0A0A0E090E0904010D0E0A07D3
:207CA0000503080A0F060004010B0D030B080F060C030A050E050106010600090905030BE9
:207CC000090903060A02080200030A080E0E0605080B0D080C0103040A0402040F0A010BC2
:207CE0000E0B05010700080A0D0D080E0B030A000B040A080A01040C00040F0F0907050A87
:207D00000C050F0407010F0401050504030D010A09000D070C0907000E03020B0A000F0684
:207D20000700010D0D0F0201040B0F0303090D00070D030E0A020405020E0A00030800086E
:207D4000080C0508060A02060C0401010108090406090D0F010E060F0A03040B0000080F40
:207D6000030809060B0C0A0E020E0305080D000C0900080A040700000B0F010D0A040B0B0F
:207D80000A070A0D0E0C06040D0A060000090B0D020D080E000508030102090003060A07FE
:207DA0000A06080A010D080601020D0C0A030C020805050804010E0E0203070B000E0D0DD4
:207DC0000E09030B0D04020B0F000404090E0201000C03040201000901090C000B050D02DB
:207DE0000200030D040506050806000D070F0C0B0F0C0D000200070B030E0E0D020D060395
:207E00000F0009000A050E09030E070F060A0408040C03070C00060C040B0A03060C090270
:207E20000E030B080B07040603090C040C00010E0E09090F0F0007010B0F060F020C01083F
:207E40000E02060F0E050E0B0004000C030B08030E0601010E0E040C0907040A0805080033
:207E600000070E0D0E0D050C040F020407040706020706020D080F0806050B0B0D09020EFF
:207E80000905010A0E0C01090C050F0F0A02060C0B0F0A0F0C0F0F0104070B0707070D0CB6
:207EA0000303000F0D070E060302000909030B030A0D090705070E05070A02070D0B0D02D6
:207EC0000E050F08050F0A0E08030D050403090C0E030F0F0F07030500070309000508089E
:207EE000000C0D040F00040B0B07030300010C0A080F0B0D0D08050C02070E050D090B0680
:207F0000000E0D0504050E0504030804040E01010C0401080F0105080205040E0F0C0D0D7A
:207F20000507000305010300000D0703080C0C070E040C070B0B090408010D050301070F6E
:207F4000010E020C040D0C0B000C0F0D050E0E07010E010F0406010506030A0D0D09090816
:207F6000070B090D070F09040D0D040D080502010A0608050C050F0304030F04020F0E0DF5
:207F800002040F080309090E02040C03080D0B030D060C0202000B0A090100070A0A050CFB
:207FA0000B0E05070F050E040A010C0B0E060E0A010603030901020A0E0E0E070B03060DB3
:207FC00008040602090D0A0E09010A040708040D0F0A070B0702090803090A0A0904040FA2
:207FE00006050C0C0E050E0508020E070E0B06040A0E01070D020C0007020B000506090291
:2080000000020C05040C0F040B060F0F080101000E06030C0D0E0B0E01060A050906090369
:208020000A00080E0704070A05080D0C0B030B0804010D020A090F040402000805050B0B55
:2080400003060005050D060B03070D0F010C070E0507060006030A0307010F090C03070B3E
:20806000030403020E0E0C06020406060606030F0B000602040A050C00060F0A0B0109012F
:20808000020A0C0C080D060102010809010A0003060A0D060803040C06050907030E010D06
:2080A000060D02050B0003090E0B0E080A0D040C0D0E0F040002090807050D080406070BBB
:2080C00002040D0A0E0509070A0E0D0D07050D070B0E0F010D01010D010D0F06090D0B0580
:2080E000060F0F030F0A050F050309000C0705080603060F0A05090B070B07000107020E89
:208100000402090900030E0F010F0A0D0B08060C0E0C0D0B0C090D080E0D060D0C00050B35
:208120000703030A060E02000D0A070C03010C070B05060F0D0D000D0801010E060C060055
:2081400003000B0D0E0C070006040100030606000302000E0E000E070D0C05020A0E06064F
:208160000C0A030A0D050604070F05090A0E0407020A080806060801080D000108080F0C07
:208180000F0508040C0006080A0F060E0C0F0602080200020D0C0907010C0A0202030D00F5
:2081A0000301000B010B050F07050008080A05030D0E0A09070202040903030F000F010DEA
:2081C000030C0E070A010A0E080A0D080C0B050C090F0E0E0B080E0F02050909030D060C6A
:2081E0000709000506000706070C000D050D0C0A090809070E070A070206060702030A03A1
:208200000C04010308060F030007010509090F0A05070A00000B0B070802050F000C04038E
:208220000A030E0C05060D0106060D0105030A00000C0A0B080A0703000E07090F0D000655
:20824000050305030B0A0B0C04030E0704000A0E0D09080E05080E0C0E0605090B07060617
:20826000090608030D070D0102050002080E04010A09000C020A0E0C0A05030E030C010E1B
:20828000000E02030C0304090F070F0909040E060E020E04060C0A0A030D0A04070B0005E3
:2082A00004050B050700070A00010C0605010A0F00000508020C0408090101070F0B0F0BEE
:2082C0000E010D010E050F04050D080602010F01040C0A0B080D0B060A00000F02070D0DA1
:2082E0000701060E0B020400070E010F0F0D0B040B050B020C0F090B0A0B0901070C010979
:208300000303050C0705010A00040E000103040F0D02010A0800080903030B0802020204B0
:208320000704050C06080004050C020E05000B0700040E090F020F0D0B090D0D080A00044B
:208340000E0A0B0002010D0A090F020D060A0A030E0B040E090A08090C000C030E0C04050F
:2083600002080B05000403070A03030D0D0304020B0608090A050F02050A0002040A040E2F
:208380000E0F010706020403010E0F0E0D0B080A04070505060D0D06020F01060C0D0608D9
:2083A0000207000B030A090E080106030C050C030C0702010D050C0204050C040E050A07E0
:2083C000020A0A0E0C0F0C040A0E0E04020C09030D0301020B0C09070F010305050E0E0097
:2083E0000A080A0C0D0F0F0909000500040708070D090F0B0C010F0B0F0B09070904050066
:20840000000B0B010C080601020F0102040D060403040706050C0403010804010E090004A6
:2084200006070802070D000D02020E0B07030D0E0505090706070F0E0C0E050A0305080441
:208440000C040E0A0B040A090F0D0F07010003020A0E0000000D0D0505010208050A00053F
:208460000208030A01000F06030B0D0403020E0B0E0B0A0403070A070A070707010D02051C
:2084800005000A0B0C0B0008050F080F000C0A0D03020A03050D060C0B0D060E07040E01D9
:2084A00004080D0A050B0A0208090E07010507020A0F070F01030B0B0B050A06030A0F05BE
:2084C00009050F050A030C090909040D010B0F0B08080B0B0507090C0A02080704070C0492
:2084E0000C0F0D050F01080B080907060D0B000C060B01080C0D04030A05010B070906007F
:2085000008070602090F00020B0A070E01040D060209080F0208040F080D010D0305000B73
:208520000506080F0D030A0D090A0B09090B050303000B060C050E090F0A050B060E03082B
:208540000807050D00070E0D0D030D0C0D0903090B060F0709090A0F0E0607050602000C07
:20856000070404070A09030A090F020D010D0D020F00010607090D000D030A0A080605080F
:208580000900000F0B050308040A0402080200080A000C010A0602010E000409030A010827
:2085A00003020C02070508020E080602020A0C050A0E0F00010C04030902000F0B080708E0
:2085C0000C0C0C070100010B01060B080C0B050F0E02010F0506080C09080B01090C010BA1
:2085E0000505090401000D030F0608070A050D090904040B04030D0D0403070F050E090292
:20860000030C050A090C0C030703040F0D04030403040F0B0B0603010C0A060A00040D0472
:2086200004070903050500060209070606060101020702010C0407030805070F0B0204098A
:208640000E010601070F01090E070108070F0B090D040C0604070B0F0A0D0C0E0B0C080FF5
:208660000702060205090A05020F080E0A08050F0D010104090500050E05000B080D09021B
:2086800003030C050E0602070305080A0A03020A0D0C0B09010F01020B0908070F010C04F0
:2086A000030F0801010704050E0E080D040C0C0B07010101070D03020F0E0607070C0F01C6
:2086C0000403090D0604000C0C0105000C01040B0A0A060902000A090A0B0F040A0A0C01B8
:2086E0000C000B030A0F0407010E080B010D0D0D090F0B0404090A0D0E0D0407080104066E
:208700000107090208040D050E06040A000809090C070B0F07010A0B01080B0E0F0A08015E
:20872000060C0E030B090D030D050C0007090709010A070E080C06060C030208030B0E043B
:208740000D0A03080D0A0903070409000B010C0704070C0E0E050B0B0403080301080E0A20
:208760000203020307010A020E0905060B0905000D03010A0D030A090105010D0605080932
:20878000060B040C0C0B0A0F0D0C0603020304020607010D020700080B0D010502060C0FEE
:2087A0000D0A090A0B060C040C0D0D05010B0B0B0F0E0C0A0A0D030F070B0D0A07010D0B7C
:2087C000040E06040C080708040D0106060A0301000D0A08000B0D000E010F00040B0F0EAD
:2087E000040D00030B020C0E0C0E020E000B040E0B0E0904020D0F0A070B0B0C0001090076
:208800000706060B0803020808000501000C03010702040D09070F0A0F090C0C090105077E
:2088200004010B090A0908020F030706050007030D050A08090000080D050607050B0D0A59
:20884000010F04030902030E0E0A01050E070A00000B0F040B080D0D0B060A040909030623
:20886000010A0D040805090902000E05040D0D0B0B090F0A0508070C0009090100000A080D
:2088800008070E0B060B0F080D0405030306060907040E070D0E0904080406080C070805D5
:2088A000060E01070B0A080A0204040804040A0507050A0002030902080C00060807070EE8
:2088C0000E0007060E0A07070E0405040B0C0F0E020F0307090704060B0706090C01020A99
:2088E00008080E0C08090C000407080C0E0B020C0A0E07000106070E020E0600040600048C
:20890000050C0F0A0B0F040C0B080B0506050F07000704020C00020802060508000B09056E
